:020000005D2879
:100006008312031396180928000003284108950057
:020016000800E0
:0E001800831203133C088A003B088200080094
:0E0026000030831203138C1A0130F000080022
:100034000C208A110A128000840ABB0A0319BC0A24
:08004400F003031D1A28080057
:10004C0083120313961690309700831687160716A3
:0E005C0083128C1E34281408F0002E28080091
:0E006A0000308312031396180130F0000800D6
:1000780083120313C0013E0884000008BF003F0834
:10008800003A031951283F08C1000320C00A40085C
:0C0098003E0784000008BF004328080059
:1000A400831203131408F100971C5A281712171609
:0600B4007108F0000800D5
:1000BA00533083120313A0007430A1006F30A200E2
:1000CA007030A3000A30A400A5015230A6006530A2
:1000DA00A7006330A8006530A9006930AA0076300D
:1000EA00AB006530AC006430AD003A30AE00203071
:1000FA00AF00B0010A30B100B2014330B30068303A
:10010A00B4006130B5007230B6006730B7006530B0
:10011A00B8000A30B900BA01713083168F0007306F
:10012A0083129900831691010711333083129300C9
:10013A00161526200330FB000830FC007730FD003E
:10014A00FD0BA528FC0BA528FB0BA528BD0107154F
:10015A00132070080319B42852207008BD003520F6
:10016A0070080319D7283D08633A031DC1283330A4
:10017A00BE003C200711D6283D08733A031DCA2841
:10018A002030BE003C200715D6283D080319D62882
:10019A002630BE003C203D08C10003203130BE009D
:0801AA003C20BD01AD28D8285E
:02400E00F40FAD
:00000001FF
